{
  "contractName": "Charity",
  "abi": [
    {
      "constant": true,
      "inputs": [
        {
          "name": "",
          "type": "uint256"
        }
      ],
      "name": "events",
      "outputs": [
        {
          "name": "_idEvent",
          "type": "uint256"
        },
        {
          "name": "_nameEvent",
          "type": "string"
        },
        {
          "name": "_startDate",
          "type": "string"
        },
        {
          "name": "_goal",
          "type": "uint256"
        },
        {
          "name": "_location",
          "type": "string"
        },
        {
          "name": "_receiver",
          "type": "string"
        },
        {
          "name": "_description",
          "type": "string"
        },
        {
          "name": "_imageHash",
          "type": "string"
        }
      ],
      "payable": false,
      "stateMutability": "view",
      "type": "function"
    },
    {
      "constant": true,
      "inputs": [
        {
          "name": "",
          "type": "uint256"
        }
      ],
      "name": "arrayReceiver",
      "outputs": [
        {
          "name": "idReceiver",
          "type": "uint256"
        },
        {
          "name": "name",
          "type": "string"
        },
        {
          "name": "totalMoneyReceived",
          "type": "uint256"
        },
        {
          "name": "Description",
          "type": "string"
        }
      ],
      "payable": false,
      "stateMutability": "view",
      "type": "function"
    },
    {
      "constant": true,
      "inputs": [
        {
          "name": "",
          "type": "uint256"
        }
      ],
      "name": "arrayGiveth",
      "outputs": [
        {
          "name": "idGiveth",
          "type": "uint256"
        },
        {
          "name": "name",
          "type": "string"
        },
        {
          "name": "location",
          "type": "string"
        },
        {
          "name": "idEvent",
          "type": "uint256"
        },
        {
          "name": "totalMoneygive",
          "type": "uint256"
        },
        {
          "name": "incognito",
          "type": "bool"
        },
        {
          "name": "Description",
          "type": "string"
        }
      ],
      "payable": false,
      "stateMutability": "view",
      "type": "function"
    },
    {
      "constant": true,
      "inputs": [],
      "name": "eventCount",
      "outputs": [
        {
          "name": "",
          "type": "uint256"
        }
      ],
      "payable": false,
      "stateMutability": "view",
      "type": "function"
    },
    {
      "constant": true,
      "inputs": [],
      "name": "admin",
      "outputs": [
        {
          "name": "",
          "type": "address"
        }
      ],
      "payable": false,
      "stateMutability": "view",
      "type": "function"
    },
    {
      "inputs": [],
      "payable": false,
      "stateMutability": "nonpayable",
      "type": "constructor"
    },
    {
      "constant": false,
      "inputs": [
        {
          "name": "idevent",
          "type": "uint256"
        },
        {
          "name": "name",
          "type": "string"
        },
        {
          "name": "dateopen",
          "type": "string"
        },
        {
          "name": "goal",
          "type": "uint256"
        },
        {
          "name": "location",
          "type": "string"
        },
        {
          "name": "receiver",
          "type": "string"
        },
        {
          "name": "description",
          "type": "string"
        },
        {
          "name": "imgHash",
          "type": "string"
        }
      ],
      "name": "addEvents",
      "outputs": [],
      "payable": false,
      "stateMutability": "nonpayable",
      "type": "function"
    }
  ],
  "bytecode": "0x608060405260006004553480156200001657600080fd5b5062000021620008c9565b6200002b620008c9565b62000035620008c9565b336000806101000a81548173ffffffffffffffffffffffffffffffffffffffff021916908373ffffffffffffffffffffffffffffffffffffffff16021790555061010060405190810160405280600181526020016040805190810160405280601e81526020017f436c65616e20776174657220666f722074686520757262616e2061726561000081525081526020016040805190810160405280600a81526020017f30312f31302f3230313800000000000000000000000000000000000000000000815250815260200161271081526020016040805190810160405280600581526020017f4c6962796100000000000000000000000000000000000000000000000000000081525081526020016040805190810160405280600a81526020017f486169204e677579656e000000000000000000000000000000000000000000008152508152602001608060405190810160405280604981526020017f57617465722077696c6c206265206f6e65206f6620746865206b65792072657381526020017f6f757263657320666f72207375737461696e61626c6520757262616e2064657681526020017f656c6f706d656e742e000000000000000000000000000000000000000000000081525081526020016040805190810160405280600881526020017f62675f322e6a706700000000000000000000000000000000000000000000000081525081525092506101006040519081016040528060028152602001606060405190810160405280602e81526020017f576527726520746865206368617269747920666f72206368696c6472656e206181526020017f666665637465642062792077617200000000000000000000000000000000000081525081526020016040805190810160405280600a81526020017f30332f30342f32303139000000000000000000000000000000000000000000008152508152602001611b5881526020016040805190810160405280600581526020017f537972696100000000000000000000000000000000000000000000000000000081525081526020016040805190810160405280600a81526020017f486169204e677579656e000000000000000000000000000000000000000000008152508152602001606060405190810160405280603481526020017f546865726520617265206e6f20776f72647320746f206e616d6520776861742081526020017f77652068617665206265656e207468726f75676800000000000000000000000081525081526020016040805190810160405280600b81526020017f63617573652d322e6a7067000000000000000000000000000000000000000000815250815250915061010060405190810160405280600381526020016040805190810160405280601a81526020017f45666665637473206f6620776172206f6e206368696c6472656e00000000000081525081526020016040805190810160405280600a81526020017f30312f31302f32303138000000000000000000000000000000000000000000008152508152602001614e2081526020016040805190810160405280600581526020017f537972696100000000000000000000000000000000000000000000000000000081525081526020016040805190810160405280600a81526020017f486169204e677579656e00000000000000000000000000000000000000000000815250815260200160a060405190810160405280606d81526020017f447572696e6720636f6e666c6963742c206368696c6472656e20616e6420796f81526020017f756e672070656f706c65e280997320726967687473206172652076696f6c617481526020017f6564206f6e2061206d617373697665207363616c653b2074686569722072696781526020017f68747320746f206265202e2e2e0000000000000000000000000000000000000081525081526020016040805190810160405280600b81526020017f63617573652d332e6a706700000000000000000000000000000000000000000081525081525090508260036000856000015181526020019081526020016000206000820151816000015560208201518160010190805190602001906200063d9291906200090f565b5060408201518160020190805190602001906200065c9291906200090f565b50606082015181600301556080820151816004019080519060200190620006859291906200090f565b5060a0820151816005019080519060200190620006a49291906200090f565b5060c0820151816006019080519060200190620006c39291906200090f565b5060e0820151816007019080519060200190620006e29291906200090f565b50905050816003600084600001518152602001908152602001600020600082015181600001556020820151816001019080519060200190620007269291906200090f565b506040820151816002019080519060200190620007459291906200090f565b506060820151816003015560808201518160040190805190602001906200076e9291906200090f565b5060a08201518160050190805190602001906200078d9291906200090f565b5060c0820151816006019080519060200190620007ac9291906200090f565b5060e0820151816007019080519060200190620007cb9291906200090f565b509050508060036000836000015181526020019081526020016000206000820151816000015560208201518160010190805190602001906200080f9291906200090f565b5060408201518160020190805190602001906200082e9291906200090f565b50606082015181600301556080820151816004019080519060200190620008579291906200090f565b5060a0820151816005019080519060200190620008769291906200090f565b5060c0820151816006019080519060200190620008959291906200090f565b5060e0820151816007019080519060200190620008b49291906200090f565b509050506003600481905550505050620009be565b6101006040519081016040528060008152602001606081526020016060815260200160008152602001606081526020016060815260200160608152602001606081525090565b828054600181600116156101000203166002900490600052602060002090601f016020900481019282601f106200095257805160ff191683800117855562000983565b8280016001018555821562000983579182015b828111156200098257825182559160200191906001019062000965565b5b50905062000992919062000996565b5090565b620009bb91905b80821115620009b75760008160009055506001016200099d565b5090565b90565b6112ad80620009ce6000396000f300608060405260043610610078576000357c0100000000000000000000000000000000000000000000000000000000900463ffffffff1680630b7914301461007d5780630d060a201461034d57806341cb3a001461046d5780635f5867b21461064857806371be2e4a146107e6578063f851a44014610811575b600080fd5b34801561008957600080fd5b506100a860048036038101908080359060200190929190505050610868565b6040518089815260200180602001806020018881526020018060200180602001806020018060200187810387528e818151815260200191508051906020019080838360005b838110156101085780820151818401526020810190506100ed565b50505050905090810190601f1680156101355780820380516001836020036101000a031916815260200191505b5087810386528d818151815260200191508051906020019080838360005b8381101561016e578082015181840152602081019050610153565b50505050905090810190601f16801561019b5780820380516001836020036101000a031916815260200191505b5087810385528b818151815260200191508051906020019080838360005b838110156101d45780820151818401526020810190506101b9565b50505050905090810190601f1680156102015780820380516001836020036101000a031916815260200191505b5087810384528a818151815260200191508051906020019080838360005b8381101561023a57808201518184015260208101905061021f565b50505050905090810190601f1680156102675780820380516001836020036101000a031916815260200191505b50878103835289818151815260200191508051906020019080838360005b838110156102a0578082015181840152602081019050610285565b50505050905090810190601f1680156102cd5780820380516001836020036101000a031916815260200191505b50878103825288818151815260200191508051906020019080838360005b838110156103065780820151818401526020810190506102eb565b50505050905090810190601f1680156103335780820380516001836020036101000a031916815260200191505b509e50505050505050505050505050505060405180910390f35b34801561035957600080fd5b5061037860048036038101908080359060200190929190505050610c40565b604051808581526020018060200184815260200180602001838103835286818151815260200191508051906020019080838360005b838110156103c85780820151818401526020810190506103ad565b50505050905090810190601f1680156103f55780820380516001836020036101000a031916815260200191505b50838103825284818151815260200191508051906020019080838360005b8381101561042e578082015181840152602081019050610413565b50505050905090810190601f16801561045b5780820380516001836020036101000a031916815260200191505b50965050505050505060405180910390f35b34801561047957600080fd5b5061064660048036038101908080359060200190929190803590602001908201803590602001908080601f0160208091040260200160405190810160405280939291908181526020018383808284378201915050505050509192919290803590602001908201803590602001908080601f016020809104026020016040519081016040528093929190818152602001838380828437820191505050505050919291929080359060200190929190803590602001908201803590602001908080601f0160208091040260200160405190810160405280939291908181526020018383808284378201915050505050509192919290803590602001908201803590602001908080601f0160208091040260200160405190810160405280939291908181526020018383808284378201915050505050509192919290803590602001908201803590602001908080601f0160208091040260200160405190810160405280939291908181526020018383808284378201915050505050509192919290803590602001908201803590602001908080601f0160208091040260200160405190810160405280939291908181526020018383808284378201915050505050509192919290505050610daf565b005b34801561065457600080fd5b5061067360048036038101908080359060200190929190505050610f45565b604051808881526020018060200180602001878152602001868152602001851515151581526020018060200184810384528a818151815260200191508051906020019080838360005b838110156106d75780820151818401526020810190506106bc565b50505050905090810190601f1680156107045780820380516001836020036101000a031916815260200191505b50848103835289818151815260200191508051906020019080838360005b8381101561073d578082015181840152602081019050610722565b50505050905090810190601f16801561076a5780820380516001836020036101000a031916815260200191505b50848103825285818151815260200191508051906020019080838360005b838110156107a3578082015181840152602081019050610788565b50505050905090810190601f1680156107d05780820380516001836020036101000a031916815260200191505b509a505050505050505050505060405180910390f35b3480156107f257600080fd5b506107fb61116b565b6040518082815260200191505060405180910390f35b34801561081d57600080fd5b50610826611171565b604051808273ffffffffffffffffffffffffffffffffffffffff1673ffffffffffffffffffffffffffffffffffffffff16815260200191505060405180910390f35b6003602052806000526040600020600091509050806000015490806001018054600181600116156101000203166002900480601f01602080910402602001604051908101604052809291908181526020018280546001816001161561010002031660029004801561091a5780601f106108ef5761010080835404028352916020019161091a565b820191906000526020600020905b8154815290600101906020018083116108fd57829003601f168201915b505050505090806002018054600181600116156101000203166002900480601f0160208091040260200160405190810160405280929190818152602001828054600181600116156101000203166002900480156109b85780601f1061098d576101008083540402835291602001916109b8565b820191906000526020600020905b81548152906001019060200180831161099b57829003601f168201915b505050505090806003015490806004018054600181600116156101000203166002900480601f016020809104026020016040519081016040528092919081815260200182805460018160011615610100020316600290048015610a5c5780601f10610a3157610100808354040283529160200191610a5c565b820191906000526020600020905b815481529060010190602001808311610a3f57829003601f168201915b505050505090806005018054600181600116156101000203166002900480601f016020809104026020016040519081016040528092919081815260200182805460018160011615610100020316600290048015610afa5780601f10610acf57610100808354040283529160200191610afa565b820191906000526020600020905b815481529060010190602001808311610add57829003601f168201915b505050505090806006018054600181600116156101000203166002900480601f016020809104026020016040519081016040528092919081815260200182805460018160011615610100020316600290048015610b985780601f10610b6d57610100808354040283529160200191610b98565b820191906000526020600020905b815481529060010190602001808311610b7b57829003601f168201915b505050505090806007018054600181600116156101000203166002900480601f016020809104026020016040519081016040528092919081815260200182805460018160011615610100020316600290048015610c365780601f10610c0b57610100808354040283529160200191610c36565b820191906000526020600020905b815481529060010190602001808311610c1957829003601f168201915b5050505050905088565b600281815481101515610c4f57fe5b9060005260206000209060040201600091509050806000015490806001018054600181600116156101000203166002900480601f016020809104026020016040519081016040528092919081815260200182805460018160011615610100020316600290048015610d015780601f10610cd657610100808354040283529160200191610d01565b820191906000526020600020905b815481529060010190602001808311610ce457829003601f168201915b505050505090806002015490806003018054600181600116156101000203166002900480601f016020809104026020016040519081016040528092919081815260200182805460018160011615610100020316600290048015610da55780601f10610d7a57610100808354040283529160200191610da5565b820191906000526020600020905b815481529060010190602001808311610d8857829003601f168201915b5050505050905084565b610db7611196565b6000809054906101000a900473ffffffffffffffffffffffffffffffffffffffff1673ffffffffffffffffffffffffffffffffffffffff163373ffffffffffffffffffffffffffffffffffffffff16141515610e1257600080fd5b610100604051908101604052808a815260200189815260200188815260200187815260200186815260200185815260200184815260200183815250905080600360008b8152602001908152602001600020600082015181600001556020820151816001019080519060200190610e899291906111dc565b506040820151816002019080519060200190610ea69291906111dc565b50606082015181600301556080820151816004019080519060200190610ecd9291906111dc565b5060a0820151816005019080519060200190610eea9291906111dc565b5060c0820151816006019080519060200190610f079291906111dc565b5060e0820151816007019080519060200190610f249291906111dc565b50905050600460008154809291906001019190505550505050505050505050565b600181815481101515610f5457fe5b9060005260206000209060070201600091509050806000015490806001018054600181600116156101000203166002900480601f0160208091040260200160405190810160405280929190818152602001828054600181600116156101000203166002900480156110065780601f10610fdb57610100808354040283529160200191611006565b820191906000526020600020905b815481529060010190602001808311610fe957829003601f168201915b505050505090806002018054600181600116156101000203166002900480601f0160208091040260200160405190810160405280929190818152602001828054600181600116156101000203166002900480156110a45780601f10611079576101008083540402835291602001916110a4565b820191906000526020600020905b81548152906001019060200180831161108757829003601f168201915b5050505050908060030154908060040154908060050160009054906101000a900460ff1690806006018054600181600116156101000203166002900480601f0160208091040260200160405190810160405280929190818152602001828054600181600116156101000203166002900480156111615780601f1061113657610100808354040283529160200191611161565b820191906000526020600020905b81548152906001019060200180831161114457829003601f168201915b5050505050905087565b60045481565b6000809054906101000a900473ffffffffffffffffffffffffffffffffffffffff1681565b6101006040519081016040528060008152602001606081526020016060815260200160008152602001606081526020016060815260200160608152602001606081525090565b828054600181600116156101000203166002900490600052602060002090601f016020900481019282601f1061121d57805160ff191683800117855561124b565b8280016001018555821561124b579182015b8281111561124a57825182559160200191906001019061122f565b5b509050611258919061125c565b5090565b61127e91905b8082111561127a576000816000905550600101611262565b5090565b905600a165627a7a7230582092689b3ce82b51c8fe84b35f96ba24449aa14e6e5b0693d13463660c9ff822470029",
  "source": "pragma solidity ^0.4.24;\n\n// import \"./Events.sol\";\n\ncontract Charity {\n    \n    struct Events {\n        uint256 _idEvent;\n        string _nameEvent;\n        string _startDate;\n        // string _endDate;\n        uint256 _goal;\n        string _location;\n        string _receiver;\n        string _description;\n        string _imageHash;\n        // address admin;\n    }\n\n    struct Giveth{\n        uint256 idGiveth;\n        string name;\n        string location;\n        uint256 idEvent;\n        uint256 totalMoneygive;\n        bool incognito;\n        string Description;\n    } \n    \n    struct Receiver{\n        uint256 idReceiver;\n        string name;\n        uint256 totalMoneyReceived;\n        string Description;\n    }\n\n    address public admin;\n    \n    Giveth[] public arrayGiveth;\n    Receiver[] public arrayReceiver;\n    \n    // Events[] public events;\n\n    mapping (uint256 => Events) public events;\n    uint256 public eventCount = 0;\n    \n    constructor() public {\n        admin = msg.sender;\n        Events memory e1 = Events(\n            1, \"Clean water for the urban area\", \"01/10/2018\",\n            10000, \"Libya\", \"Hai Nguyen\", \"Water will be one of the key resources for sustainable urban development.\", \n            \"bg_2.jpg\");\n\n        Events memory e2 = Events(\n            2, \"We're the charity for children affected by war\", \"03/04/2019\",\n            7000, \"Syria\", \"Hai Nguyen\", \"There are no words to name what we have been through\",\n            \"cause-2.jpg\");\n        \n        Events memory e3 = Events(\n            3, \"Effects of war on children\", \"01/10/2018\",\n            20000, \"Syria\", \"Hai Nguyen\", \"During conflict, children and young people’s rights are violated on a massive scale; their rights to be ...\",\n            \"cause-3.jpg\");\n\n        events[e1._idEvent] = e1;\n        events[e2._idEvent] = e2;\n        events[e3._idEvent] = e3;\n        // events.push(e1);\n        // events.push(e2);\n        // events.push(e3);\n        eventCount = 3;\n    }\n    \n    modifier ifAdmin{\n        require(msg.sender==admin);\n        _;\n    }\n    \n    function addEvents(\n        uint256 idevent,string name,string dateopen, uint256 goal,\n        string location, string receiver, string description, string imgHash) public ifAdmin {\n        Events memory ev = Events(idevent, name, dateopen, goal, location,  receiver, description, imgHash);\n        events[idevent] = ev;\n        eventCount++;\n    }\n\n    // function getEventById(uint256 idEvent) public view returns (Events) {\n    //     return events[idEvent];\n    // }\n\n    // function getNameEvent(uint256 idevent)public view returns(string){\n    //     for(uint256 i = 0; i < events.length; i++) {\n    //         if(idevent==events[i].getEventId()){\n    //             return events[i].getNameEvent();\n    //         }\n    //     }\n    // }\n    \n    // function getDateOpent(uint256 idevent)public view returns(string){\n    //     for(uint256 i = 0; i < events.length; i++) {\n    //         if(idevent==events[i].getidEvent()){\n    //             return events[i].getdateOpent();\n    //         }\n    //     }\n    // }\n    \n    // function getDateClose(uint256 idevent)public view returns(string){\n    //     for(uint256 i = 0;i < events.length; i++){\n    //         if(idevent==events[i].getidEvent()){\n    //             return events[i].getdateClose();\n    //         }\n    //     }\n    // }\n    \n    // function getTotalMoney(uint256 idevent) public view returns(uint256){\n    //     for(uint256 i = 0; i < events.length; i++){\n    //         if(idevent==events[i].getidEvent()){\n    //             return events[i].gettotalmoney();\n    //         }\n    //     }\n    // }\n    \n    // function getReceiver(uint256 idevent) public view returns(string){\n    //     for(uint256 i = 0; i < events.length; i++) {\n    //         if(idevent==events[i].getidEvent()){\n    //             return events[i].getReceiver();\n    //         }\n    //     }\n    // }\n    \n    // function addGiveth(uint256 id, string name, string location,uint256 idevent, uint256 money, bool incognito, string desc) public {\n    //     Giveth memory newGiveth = Giveth({\n    //         idGiveth:id, \n    //         name:name, \n    //         location:location, \n    //         idEvent:idevent, \n    //         totalMoneygive:money, \n    //         incognito:incognito, \n    //         Description:desc\n    //     });\n    //     arrayGiveth.push(newGiveth);\n    // }\n    \n    // function addReceiver(uint256 id,string name, uint256 money, string desc)public ifAdmin {\n    //     Receiver memory newreceiver = Receiver({\n    //         idReceiver:id,\n    //         name:name,\n    //         totalMoneyReceived:money,\n    //         Description:desc\n    //     });\n    //     arrayReceiver.push(newreceiver);\n    // }\n    // //get giveth\n    // function getNameGiveth(uint256 id) public view returns(string){\n    //     for(uint256 i = 0; i < arrayGiveth.length; i++){\n    //         if(id==arrayGiveth[i].idGiveth){\n    //             return arrayGiveth[i].name;\n    //         }\n    //     }\n    // }\n    \n    // function getLocationGiveth(uint256 id) public view returns(string){\n    //     for(uint256 i = 0; i < arrayGiveth.length; i++){\n    //         if(id==arrayGiveth[i].idGiveth){\n    //             return arrayGiveth[i].location;\n    //         }\n    //     }\n    // }\n    \n    // function getIdEvent(uint256 id)public view returns(uint256){\n    //     for(uint256 i = 0; i < arrayGiveth.length; i++){\n    //         if(id==arrayGiveth[i].idGiveth){\n    //             return arrayGiveth[i].idEvent;\n    //         }\n    //     }\n    // }\n    \n    // function getTotalMoneyGiveth(uint256 id)public view returns(uint256){\n    //     for(uint256 i = 0; i < arrayGiveth.length; i++){\n    //         if(id==arrayGiveth[i].idGiveth){\n    //             return arrayGiveth[i].totalMoneygive;\n    //         }\n    //     }\n    // }\n    \n    // function getIncognito(uint256 id)public view returns(bool){\n    //     for(uint256 i = 0; i < arrayGiveth.length; i++){\n    //         if(id==arrayGiveth[i].idGiveth){\n    //             return arrayGiveth[i].incognito;\n    //         }\n    //     }\n    // }\n    \n    // function getDescriptionGiveth(uint256 id)public view returns(string){\n    //     for(uint256 i = 0; i < arrayGiveth.length; i++){\n    //         if(id==arrayGiveth[i].idGiveth){\n    //             return arrayGiveth[i].Description;\n    //         }\n    //     }\n    // } \n    // //get receiver\n    // function getnameReceiver(uint256 id)public view returns(string){\n    //     for(uint256 i = 0; i < arrayReceiver.length; i++){\n    //         if(id==arrayReceiver[i].idReceiver){\n    //             return arrayReceiver[i].name;\n    //         }\n    //     }\n    // }\n    \n    // function gettotalMoneyReceived(uint256 id)public view returns(uint256){\n    //     for(uint256 i = 0; i < arrayReceiver.length; i++){\n    //         if(id==arrayReceiver[i].idReceiver){\n    //             return arrayReceiver[i].totalMoneyReceived;\n    //         }\n    //     }\n    // }\n\n    // function getDescriptionReceived(uint256 id)public view returns(string){\n    //     for(uint256 i = 0; i < arrayReceiver.length; i++) {\n    //         if(id==arrayReceiver[i].idReceiver){\n    //             return arrayReceiver[i].Description;\n    //         }\n    //     }\n    // }\n}\n",
  "sourcePath": "/mnt/96A2FFBFA2FFA243/Projects/Blockchain/DAppCharity/contracts/Charity.sol",
  "compiler": {
    "name": "solc",
    "version": "0.4.24+commit.e67f0147.Emscripten.clang"
  },
  "schemaVersion": "2.0.1",
  "updatedAt": "2018-09-30T03:58:07.118Z"
}