{
  "contractName": "Events",
  "abi": [
    {
      "constant": true,
      "inputs": [],
      "name": "_idEvent",
      "outputs": [
        {
          "name": "",
          "type": "uint256"
        }
      ],
      "payable": false,
      "stateMutability": "view",
      "type": "function"
    },
    {
      "constant": true,
      "inputs": [],
      "name": "admin",
      "outputs": [
        {
          "name": "",
          "type": "address"
        }
      ],
      "payable": false,
      "stateMutability": "view",
      "type": "function"
    },
    {
      "inputs": [],
      "payable": false,
      "stateMutability": "nonpayable",
      "type": "constructor"
    },
    {
      "constant": false,
      "inputs": [
        {
          "name": "idevent",
          "type": "uint256"
        },
        {
          "name": "name",
          "type": "string"
        },
        {
          "name": "startDate",
          "type": "string"
        },
        {
          "name": "goal",
          "type": "uint256"
        },
        {
          "name": "location",
          "type": "string"
        },
        {
          "name": "receiver",
          "type": "string"
        },
        {
          "name": "description",
          "type": "string"
        },
        {
          "name": "imgHash",
          "type": "string"
        }
      ],
      "name": "createEvents",
      "outputs": [],
      "payable": false,
      "stateMutability": "nonpayable",
      "type": "function"
    },
    {
      "constant": true,
      "inputs": [],
      "name": "getEventId",
      "outputs": [
        {
          "name": "",
          "type": "uint256"
        }
      ],
      "payable": false,
      "stateMutability": "view",
      "type": "function"
    },
    {
      "constant": true,
      "inputs": [],
      "name": "getNameEvent",
      "outputs": [
        {
          "name": "",
          "type": "string"
        }
      ],
      "payable": false,
      "stateMutability": "view",
      "type": "function"
    },
    {
      "constant": true,
      "inputs": [],
      "name": "getStartDate",
      "outputs": [
        {
          "name": "",
          "type": "string"
        }
      ],
      "payable": false,
      "stateMutability": "view",
      "type": "function"
    },
    {
      "constant": true,
      "inputs": [],
      "name": "getEventGoal",
      "outputs": [
        {
          "name": "",
          "type": "uint256"
        }
      ],
      "payable": false,
      "stateMutability": "view",
      "type": "function"
    },
    {
      "constant": true,
      "inputs": [],
      "name": "getLocation",
      "outputs": [
        {
          "name": "",
          "type": "string"
        }
      ],
      "payable": false,
      "stateMutability": "view",
      "type": "function"
    },
    {
      "constant": true,
      "inputs": [],
      "name": "getReceiver",
      "outputs": [
        {
          "name": "",
          "type": "string"
        }
      ],
      "payable": false,
      "stateMutability": "view",
      "type": "function"
    },
    {
      "constant": true,
      "inputs": [],
      "name": "getDescription",
      "outputs": [
        {
          "name": "",
          "type": "string"
        }
      ],
      "payable": false,
      "stateMutability": "view",
      "type": "function"
    },
    {
      "constant": true,
      "inputs": [],
      "name": "getImg",
      "outputs": [
        {
          "name": "",
          "type": "string"
        }
      ],
      "payable": false,
      "stateMutability": "view",
      "type": "function"
    }
  ],
  "bytecode": "0x608060405234801561001057600080fd5b5033600960006101000a81548173ffffffffffffffffffffffffffffffffffffffff021916908373ffffffffffffffffffffffffffffffffffffffff160217905550610ca1806100616000396000f3006080604052600436106100af576000357c0100000000000000000000000000000000000000000000000000000000900463ffffffff1680631a092541146100b457806324fc2496146101445780633fed5f5b1461016f5780634a17bbde146101ff5780634ae1e2981461022a57806378f305c6146102ba5780638dfe59be1461034a57806398aca92214610375578063b0237ee614610405578063ce2ce3fc146105e0578063f851a44014610670575b600080fd5b3480156100c057600080fd5b506100c96106c7565b6040518080602001828103825283818151815260200191508051906020019080838360005b838110156101095780820151818401526020810190506100ee565b50505050905090810190601f1680156101365780820380516001836020036101000a031916815260200191505b509250505060405180910390f35b34801561015057600080fd5b50610159610769565b6040518082815260200191505060405180910390f35b34801561017b57600080fd5b50610184610773565b6040518080602001828103825283818151815260200191508051906020019080838360005b838110156101c45780820151818401526020810190506101a9565b50505050905090810190601f1680156101f15780820380516001836020036101000a031916815260200191505b509250505060405180910390f35b34801561020b57600080fd5b50610214610815565b6040518082815260200191505060405180910390f35b34801561023657600080fd5b5061023f61081e565b6040518080602001828103825283818151815260200191508051906020019080838360005b8381101561027f578082015181840152602081019050610264565b50505050905090810190601f1680156102ac5780820380516001836020036101000a031916815260200191505b509250505060405180910390f35b3480156102c657600080fd5b506102cf6108c0565b6040518080602001828103825283818151815260200191508051906020019080838360005b8381101561030f5780820151818401526020810190506102f4565b50505050905090810190601f16801561033c5780820380516001836020036101000a031916815260200191505b509250505060405180910390f35b34801561035657600080fd5b5061035f610962565b6040518082815260200191505060405180910390f35b34801561038157600080fd5b5061038a610968565b6040518080602001828103825283818151815260200191508051906020019080838360005b838110156103ca5780820151818401526020810190506103af565b50505050905090810190601f1680156103f75780820380516001836020036101000a031916815260200191505b509250505060405180910390f35b34801561041157600080fd5b506105de60048036038101908080359060200190929190803590602001908201803590602001908080601f0160208091040260200160405190810160405280939291908181526020018383808284378201915050505050509192919290803590602001908201803590602001908080601f016020809104026020016040519081016040528093929190818152602001838380828437820191505050505050919291929080359060200190929190803590602001908201803590602001908080601f0160208091040260200160405190810160405280939291908181526020018383808284378201915050505050509192919290803590602001908201803590602001908080601f0160208091040260200160405190810160405280939291908181526020018383808284378201915050505050509192919290803590602001908201803590602001908080601f0160208091040260200160405190810160405280939291908181526020018383808284378201915050505050509192919290803590602001908201803590602001908080601f0160208091040260200160405190810160405280939291908181526020018383808284378201915050505050509192919290505050610a0a565b005b3480156105ec57600080fd5b506105f5610b08565b6040518080602001828103825283818151815260200191508051906020019080838360005b8381101561063557808201518184015260208101905061061a565b50505050905090810190601f1680156106625780820380516001836020036101000a031916815260200191505b509250505060405180910390f35b34801561067c57600080fd5b50610685610baa565b604051808273ffffffffffffffffffffffffffffffffffffffff1673ffffffffffffffffffffffffffffffffffffffff16815260200191505060405180910390f35b606060078054600181600116156101000203166002900480601f01602080910402602001604051908101604052809291908181526020018280546001816001161561010002031660029004801561075f5780601f106107345761010080835404028352916020019161075f565b820191906000526020600020905b81548152906001019060200180831161074257829003601f168201915b5050505050905090565b6000600454905090565b606060088054600181600116156101000203166002900480601f01602080910402602001604051908101604052809291908181526020018280546001816001161561010002031660029004801561080b5780601f106107e05761010080835404028352916020019161080b565b820191906000526020600020905b8154815290600101906020018083116107ee57829003601f168201915b5050505050905090565b60008054905090565b606060018054600181600116156101000203166002900480601f0160208091040260200160405190810160405280929190818152602001828054600181600116156101000203166002900480156108b65780601f1061088b576101008083540402835291602001916108b6565b820191906000526020600020905b81548152906001019060200180831161089957829003601f168201915b5050505050905090565b606060028054600181600116156101000203166002900480601f0160208091040260200160405190810160405280929190818152602001828054600181600116156101000203166002900480156109585780601f1061092d57610100808354040283529160200191610958565b820191906000526020600020905b81548152906001019060200180831161093b57829003601f168201915b5050505050905090565b60005481565b606060068054600181600116156101000203166002900480601f016020809104026020016040519081016040528092919081815260200182805460018160011615610100020316600290048015610a005780601f106109d557610100808354040283529160200191610a00565b820191906000526020600020905b8154815290600101906020018083116109e357829003601f168201915b5050505050905090565b600960009054906101000a900473ffffffffffffffffffffffffffffffffffffffff1673ffffffffffffffffffffffffffffffffffffffff163373ffffffffffffffffffffffffffffffffffffffff16141515610a6657600080fd5b876000819055508660019080519060200190610a83929190610bd0565b508560029080519060200190610a9a929190610bd0565b50846004819055508360059080519060200190610ab8929190610bd0565b508260069080519060200190610acf929190610bd0565b508160079080519060200190610ae6929190610bd0565b508060089080519060200190610afd929190610bd0565b505050505050505050565b606060058054600181600116156101000203166002900480601f016020809104026020016040519081016040528092919081815260200182805460018160011615610100020316600290048015610ba05780601f10610b7557610100808354040283529160200191610ba0565b820191906000526020600020905b815481529060010190602001808311610b8357829003601f168201915b5050505050905090565b600960009054906101000a900473ffffffffffffffffffffffffffffffffffffffff1681565b828054600181600116156101000203166002900490600052602060002090601f016020900481019282601f10610c1157805160ff1916838001178555610c3f565b82800160010185558215610c3f579182015b82811115610c3e578251825591602001919060010190610c23565b5b509050610c4c9190610c50565b5090565b610c7291905b80821115610c6e576000816000905550600101610c56565b5090565b905600a165627a7a72305820fd3b436016b89b2ca3ffc488275b05d9cea4c512b3dba3e716a87076ba0d9a4b0029",
  "source": "pragma solidity 0.4.24; \r\n\r\ncontract Events{\r\n    \r\n    uint256 public _idEvent;\r\n    string _nameEvent;\r\n    string _startDate;\r\n    string _endDate;\r\n    uint256 _goal;\r\n    string _location;\r\n    string _receiver;\r\n    string _description;\r\n    string _imageHash;\r\n    address public admin;\r\n    \r\n    constructor() public {\r\n        admin = msg.sender;\r\n    }\r\n    \r\n    modifier ifAdmin{\r\n        require(msg.sender==admin);\r\n        _;\r\n    }\r\n    \r\n   // Events[] public arrayEvents;\r\n    \r\n    function createEvents(\r\n        uint256 idevent,string name,string startDate,\r\n        uint256 goal, string location, string receiver, string description,\r\n        string imgHash) public ifAdmin {\r\n        _idEvent = idevent;\r\n        _nameEvent = name;\r\n        _startDate = startDate;\r\n        // _endDate = endDate;\r\n        _goal = goal;\r\n        _location = location;\r\n        _receiver = receiver;\r\n        _description = description;\r\n        _imageHash = imgHash;\r\n    }\r\n    \r\n    \r\n    function getEventId() public view returns(uint256){\r\n        return _idEvent;\r\n    }\r\n    \r\n    function getNameEvent() public view returns(string){\r\n        return _nameEvent;\r\n    }\r\n    \r\n    function getStartDate() public view returns(string){\r\n        return _startDate;\r\n    }\r\n    \r\n    // function getEndDate() public view returns(string){\r\n    //     return _endDate;\r\n    // }\r\n    \r\n    function getEventGoal() public view returns(uint256){\r\n        return _goal;\r\n    }\r\n    \r\n    function getLocation() public view returns(string){\r\n        return _location;\r\n    }\r\n    \r\n    function getReceiver() public view returns(string){\r\n        return _receiver;\r\n    }\r\n    \r\n    function getDescription() public view returns(string) {\r\n        return _description;\r\n    }\r\n    \r\n    function getImg() public view returns (string) {\r\n        return _imageHash;\r\n    }\r\n}\r\n",
  "sourcePath": "/mnt/96A2FFBFA2FFA243/Projects/Blockchain/DAppCharity/contracts/Events.sol",
  "compiler": {
    "name": "solc",
    "version": "0.4.24+commit.e67f0147.Emscripten.clang"
  },
  "schemaVersion": "2.0.1",
  "updatedAt": "2018-09-30T03:58:07.105Z"
}