{
  "contractName": "managerHomeless",
  "abi": [
    {
      "constant": true,
      "inputs": [],
      "name": "_ower",
      "outputs": [
        {
          "name": "",
          "type": "address"
        }
      ],
      "payable": false,
      "stateMutability": "view",
      "type": "function"
    },
    {
      "constant": true,
      "inputs": [
        {
          "name": "",
          "type": "uint256"
        }
      ],
      "name": "idHomeless",
      "outputs": [
        {
          "name": "",
          "type": "uint256"
        }
      ],
      "payable": false,
      "stateMutability": "view",
      "type": "function"
    },
    {
      "inputs": [],
      "payable": false,
      "stateMutability": "nonpayable",
      "type": "constructor"
    },
    {
      "constant": false,
      "inputs": [
        {
          "name": "_address",
          "type": "uint256"
        }
      ],
      "name": "addHomeless",
      "outputs": [],
      "payable": false,
      "stateMutability": "nonpayable",
      "type": "function"
    },
    {
      "constant": false,
      "inputs": [
        {
          "name": "_address",
          "type": "uint256"
        },
        {
          "name": "money",
          "type": "uint256"
        }
      ],
      "name": "excepttotalMoney",
      "outputs": [
        {
          "name": "",
          "type": "string"
        }
      ],
      "payable": false,
      "stateMutability": "nonpayable",
      "type": "function"
    },
    {
      "constant": true,
      "inputs": [
        {
          "name": "_address",
          "type": "uint256"
        }
      ],
      "name": "getTotalMoney",
      "outputs": [
        {
          "name": "",
          "type": "uint256"
        }
      ],
      "payable": false,
      "stateMutability": "view",
      "type": "function"
    }
  ],
  "bytecode": "0x608060405234801561001057600080fd5b50336000806101000a81548173ffffffffffffffffffffffffffffffffffffffff021916908373ffffffffffffffffffffffffffffffffffffffff160217905550610441806100606000396000f30060806040526004361061006d576000357c0100000000000000000000000000000000000000000000000000000000900463ffffffff1680630453f812146100725780631afc63b4146100b357806378889455146100e0578063aa6e7bbf14610190578063fad5fd9f146101e7575b600080fd5b34801561007e57600080fd5b5061009d60048036038101908080359060200190929190505050610228565b6040518082815260200191505060405180910390f35b3480156100bf57600080fd5b506100de60048036038101908080359060200190929190505050610245565b005b3480156100ec57600080fd5b506101156004803603810190808035906020019092919080359060200190929190505050610290565b6040518080602001828103825283818151815260200191508051906020019080838360005b8381101561015557808201518184015260208101905061013a565b50505050905090810190601f1680156101825780820380516001836020036101000a031916815260200191505b509250505060405180910390f35b34801561019c57600080fd5b506101a56103cd565b604051808273ffffffffffffffffffffffffffffffffffffffff1673ffffffffffffffffffffffffffffffffffffffff16815260200191505060405180910390f35b3480156101f357600080fd5b50610212600480360381019080803590602001909291905050506103f2565b6040518082815260200191505060405180910390f35b600060016000838152602001908152602001600020549050919050565b60646001600083815260200190815260200160002081905550600160028290806001815401808255809150509060018203906000526020600020016000909192909190915055505050565b60606000809054906101000a900473ffffffffffffffffffffffffffffffffffffffff1673ffffffffffffffffffffffffffffffffffffffff163373ffffffffffffffffffffffffffffffffffffffff161415156102ed57600080fd5b600160008481526020019081526020016000205482111515610367578160016000858152602001908152602001600020600082825403925050819055506040805190810160405280600881526020017f636f6d706c65746500000000000000000000000000000000000000000000000081525090506103c7565b606060405190810160405280602681526020017f4e6f7420656e6f756768206d6f6e657920746f206d616b652061207472616e7381526020017f616374696f6e000000000000000000000000000000000000000000000000000081525090505b92915050565b6000809054906101000a900473ffffffffffffffffffffffffffffffffffffffff1681565b60028181548110151561040157fe5b9060005260206000200160009150905054815600a165627a7a723058208dc0eb8b2b18741c3c438191bc85f14f0b7a6c14828fa5351ac07c6efc8b257f0029",
  "source": "pragma solidity ^0.4.23;\n\ncontract managerHomeless{\n\n    address public _ower;\n    mapping (uint => uint256) _homeLess;\n    uint[] public idHomeless;\n    \n    constructor() public{\n  \t\t_ower=msg.sender;\n  \t}\n  \t\n  \t modifier ifbuy{\n        require(msg.sender==_ower);\n        _;\n    }\n    \n    function addHomeless(uint _address) public {\n        _homeLess[_address] = 100;\n        \n        idHomeless.push(_address) -1;\n    } \n    \n    function excepttotalMoney(uint _address,uint256 money)ifbuy public returns(string){\n        if(money<=_homeLess[_address]){\n            _homeLess[_address] -= money;\n            return \"complete\";\n        }else{\n            return  \"Not enough money to make a transaction\";\n        }\n    }\n    \n    // function Execution(address _ower,uint256 coin) public returns(uint256){\n    //     _ower.send(coin);\n    // } \n    \n    function getTotalMoney(uint _address)view public returns(uint256){\n        return (_homeLess[_address]);\n    }\n    \n}",
  "sourcePath": "/mnt/96A2FFBFA2FFA243/Projects/Blockchain/DAppCharity/contracts/contractHomeless.sol",
  "compiler": {
    "name": "solc",
    "version": "0.4.24+commit.e67f0147.Emscripten.clang"
  },
  "schemaVersion": "2.0.1",
  "updatedAt": "2018-09-30T03:58:06.042Z"
}